{
  "_format": "hh-sol-artifact-1",
  "contractName": "MediLedgerContract",
  "sourceName": "contracts/MediledgerContract.sol",
  "abi": [
    {
      "inputs": [],
      "stateMutability": "nonpayable",
      "type": "constructor"
    },
    {
      "anonymous": false,
      "inputs": [
        {
          "indexed": true,
          "internalType": "address",
          "name": "patient",
          "type": "address"
        },
        {
          "indexed": true,
          "internalType": "address",
          "name": "doctor",
          "type": "address"
        },
        {
          "indexed": false,
          "internalType": "bool",
          "name": "hasAccess",
          "type": "bool"
        }
      ],
      "name": "AccessChanged",
      "type": "event"
    },
    {
      "anonymous": false,
      "inputs": [
        {
          "indexed": true,
          "internalType": "address",
          "name": "patient",
          "type": "address"
        },
        {
          "indexed": true,
          "internalType": "address",
          "name": "doctor",
          "type": "address"
        }
      ],
      "name": "RecordAdded",
      "type": "event"
    },
    {
      "inputs": [
        {
          "internalType": "address",
          "name": "",
          "type": "address"
        },
        {
          "internalType": "address",
          "name": "",
          "type": "address"
        }
      ],
      "name": "accessPermissions",
      "outputs": [
        {
          "internalType": "bool",
          "name": "",
          "type": "bool"
        }
      ],
      "stateMutability": "view",
      "type": "function"
    },
    {
      "inputs": [
        {
          "internalType": "address",
          "name": "patientAddress",
          "type": "address"
        },
        {
          "internalType": "string",
          "name": "_diagnosis",
          "type": "string"
        },
        {
          "internalType": "string",
          "name": "_recordHash",
          "type": "string"
        }
      ],
      "name": "addRecord",
      "outputs": [],
      "stateMutability": "nonpayable",
      "type": "function"
    },
    {
      "inputs": [
        {
          "internalType": "address",
          "name": "patientAddress",
          "type": "address"
        },
        {
          "internalType": "uint256",
          "name": "index",
          "type": "uint256"
        }
      ],
      "name": "getRecordByIndex",
      "outputs": [
        {
          "components": [
            {
              "internalType": "uint256",
              "name": "timestamp",
              "type": "uint256"
            },
            {
              "internalType": "address",
              "name": "doctor",
              "type": "address"
            },
            {
              "internalType": "string",
              "name": "diagnosis",
              "type": "string"
            },
            {
              "internalType": "string",
              "name": "recordHash",
              "type": "string"
            }
          ],
          "internalType": "struct MediLedgerContract.MedicalRecord",
          "name": "",
          "type": "tuple"
        }
      ],
      "stateMutability": "view",
      "type": "function"
    },
    {
      "inputs": [
        {
          "internalType": "address",
          "name": "patientAddress",
          "type": "address"
        }
      ],
      "name": "getRecordsCount",
      "outputs": [
        {
          "internalType": "uint256",
          "name": "",
          "type": "uint256"
        }
      ],
      "stateMutability": "view",
      "type": "function"
    },
    {
      "inputs": [
        {
          "internalType": "address",
          "name": "doctorAddress",
          "type": "address"
        },
        {
          "internalType": "bool",
          "name": "grant",
          "type": "bool"
        }
      ],
      "name": "manageAccess",
      "outputs": [],
      "stateMutability": "nonpayable",
      "type": "function"
    },
    {
      "inputs": [],
      "name": "owner",
      "outputs": [
        {
          "internalType": "address",
          "name": "",
          "type": "address"
        }
      ],
      "stateMutability": "view",
      "type": "function"
    }
  ],
  "bytecode": "0x6080604052348015600f57600080fd5b50336000806101000a81548173ffffffffffffffffffffffffffffffffffffffff021916908373ffffffffffffffffffffffffffffffffffffffff1602179055506112dc8061005f6000396000f3fe608060405234801561001057600080fd5b50600436106100625760003560e01c8063473fde8d1461006757806361d316191461008357806364b3b525146100b35780638da5cb5b146100e3578063d47b41d514610101578063e68cc4a31461011d575b600080fd5b610081600480360381019061007c9190610a15565b61014d565b005b61009d60048036038101906100989190610a55565b61024a565b6040516100aa9190610a9b565b60405180910390f35b6100cd60048036038101906100c89190610ab6565b610395565b6040516100da9190610b05565b60405180910390f35b6100eb6103c4565b6040516100f89190610b2f565b60405180910390f35b61011b60048036038101906101169190610c90565b6103e8565b005b61013760048036038101906101329190610d47565b610630565b6040516101449190610e8e565b60405180910390f35b80600260003373ffffffffffffffffffffffffffffffffffffffff1673ffffffffffffffffffffffffffffffffffffffff16815260200190815260200160002060008473ffffffffffffffffffffffffffffffffffffffff1673ffffffffffffffffffffffffffffffffffffffff16815260200190815260200160002060006101000a81548160ff0219169083151502179055508173ffffffffffffffffffffffffffffffffffffffff163373ffffffffffffffffffffffffffffffffffffffff167f0c2e6b1ab7b47daeb309d6dc42624fc533cf3bb0a6239a3ec5aacf3df7c9f2878360405161023e9190610b05565b60405180910390a35050565b60008173ffffffffffffffffffffffffffffffffffffffff163373ffffffffffffffffffffffffffffffffffffffff16148061030c5750600260008373ffffffffffffffffffffffffffffffffffffffff1673ffffffffffffffffffffffffffffffffffffffff16815260200190815260200160002060003373ffffffffffffffffffffffffffffffffffffffff1673ffffffffffffffffffffffffffffffffffffffff16815260200190815260200160002060009054906101000a900460ff165b61034b576040517f08c379a000000000000000000000000000000000000000000000000000000000815260040161034290610f0d565b60405180910390fd5b600160008373ffffffffffffffffffffffffffffffffffffffff1673ffffffffffffffffffffffffffffffffffffffff168152602001908152602001600020805490509050919050565b60026020528160005260406000206020528060005260406000206000915091509054906101000a900460ff1681565b60008054906101000a900473ffffffffffffffffffffffffffffffffffffffff1681565b82600260008273ffffffffffffffffffffffffffffffffffffffff1673ffffffffffffffffffffffffffffffffffffffff16815260200190815260200160002060003373ffffffffffffffffffffffffffffffffffffffff1673ffffffffffffffffffffffffffffffffffffffff16815260200190815260200160002060009054906101000a900460ff166104b2576040517f08c379a00000000000000000000000000000000000000000000000000000000081526004016104a990610f79565b60405180910390fd5b600160008573ffffffffffffffffffffffffffffffffffffffff1673ffffffffffffffffffffffffffffffffffffffff16815260200190815260200160002060405180608001604052804281526020013373ffffffffffffffffffffffffffffffffffffffff1681526020018581526020018481525090806001815401808255809150506001900390600052602060002090600402016000909190919091506000820151816000015560208201518160010160006101000a81548173ffffffffffffffffffffffffffffffffffffffff021916908373ffffffffffffffffffffffffffffffffffffffff16021790555060408201518160020190816105b791906111a5565b5060608201518160030190816105cd91906111a5565b5050503373ffffffffffffffffffffffffffffffffffffffff168473ffffffffffffffffffffffffffffffffffffffff167fcf46a95ed429f3df030a7824b5c00b7be7deb792b9e73ad3091d0648ba2a3f1c60405160405180910390a350505050565b61063861092d565b8273ffffffffffffffffffffffffffffffffffffffff163373ffffffffffffffffffffffffffffffffffffffff1614806106f85750600260008473ffffffffffffffffffffffffffffffffffffffff1673ffffffffffffffffffffffffffffffffffffffff16815260200190815260200160002060003373ffffffffffffffffffffffffffffffffffffffff1673ffffffffffffffffffffffffffffffffffffffff16815260200190815260200160002060009054906101000a900460ff165b610737576040517f08c379a000000000000000000000000000000000000000000000000000000000815260040161072e90610f0d565b60405180910390fd5b600160008473ffffffffffffffffffffffffffffffffffffffff1673ffffffffffffffffffffffffffffffffffffffff168152602001908152602001600020828154811061078857610787611277565b5b9060005260206000209060040201604051806080016040529081600082015481526020016001820160009054906101000a900473ffffffffffffffffffffffffffffffffffffffff1673ffffffffffffffffffffffffffffffffffffffff1673ffffffffffffffffffffffffffffffffffffffff16815260200160028201805461081190610fc8565b80601f016020809104026020016040519081016040528092919081815260200182805461083d90610fc8565b801561088a5780601f1061085f5761010080835404028352916020019161088a565b820191906000526020600020905b81548152906001019060200180831161086d57829003601f168201915b505050505081526020016003820180546108a390610fc8565b80601f01602080910402602001604051908101604052809291908181526020018280546108cf90610fc8565b801561091c5780601f106108f15761010080835404028352916020019161091c565b820191906000526020600020905b8154815290600101906020018083116108ff57829003601f168201915b505050505081525050905092915050565b604051806080016040528060008152602001600073ffffffffffffffffffffffffffffffffffffffff16815260200160608152602001606081525090565b6000604051905090565b600080fd5b600080fd5b600073ffffffffffffffffffffffffffffffffffffffff82169050919050565b60006109aa8261097f565b9050919050565b6109ba8161099f565b81146109c557600080fd5b50565b6000813590506109d7816109b1565b92915050565b60008115159050919050565b6109f2816109dd565b81146109fd57600080fd5b50565b600081359050610a0f816109e9565b92915050565b60008060408385031215610a2c57610a2b610975565b5b6000610a3a858286016109c8565b9250506020610a4b85828601610a00565b9150509250929050565b600060208284031215610a6b57610a6a610975565b5b6000610a79848285016109c8565b91505092915050565b6000819050919050565b610a9581610a82565b82525050565b6000602082019050610ab06000830184610a8c565b92915050565b60008060408385031215610acd57610acc610975565b5b6000610adb858286016109c8565b9250506020610aec858286016109c8565b9150509250929050565b610aff816109dd565b82525050565b6000602082019050610b1a6000830184610af6565b92915050565b610b298161099f565b82525050565b6000602082019050610b446000830184610b20565b92915050565b600080fd5b600080fd5b6000601f19601f8301169050919050565b7f4e487b7100000000000000000000000000000000000000000000000000000000600052604160045260246000fd5b610b9d82610b54565b810181811067ffffffffffffffff82111715610bbc57610bbb610b65565b5b80604052505050565b6000610bcf61096b565b9050610bdb8282610b94565b919050565b600067ffffffffffffffff821115610bfb57610bfa610b65565b5b610c0482610b54565b9050602081019050919050565b82818337600083830152505050565b6000610c33610c2e84610be0565b610bc5565b905082815260208101848484011115610c4f57610c4e610b4f565b5b610c5a848285610c11565b509392505050565b600082601f830112610c7757610c76610b4a565b5b8135610c87848260208601610c20565b91505092915050565b600080600060608486031215610ca957610ca8610975565b5b6000610cb7868287016109c8565b935050602084013567ffffffffffffffff811115610cd857610cd761097a565b5b610ce486828701610c62565b925050604084013567ffffffffffffffff811115610d0557610d0461097a565b5b610d1186828701610c62565b9150509250925092565b610d2481610a82565b8114610d2f57600080fd5b50565b600081359050610d4181610d1b565b92915050565b60008060408385031215610d5e57610d5d610975565b5b6000610d6c858286016109c8565b9250506020610d7d85828601610d32565b9150509250929050565b610d9081610a82565b82525050565b610d9f8161099f565b82525050565b600081519050919050565b600082825260208201905092915050565b60005b83811015610ddf578082015181840152602081019050610dc4565b60008484015250505050565b6000610df682610da5565b610e008185610db0565b9350610e10818560208601610dc1565b610e1981610b54565b840191505092915050565b6000608083016000830151610e3c6000860182610d87565b506020830151610e4f6020860182610d96565b5060408301518482036040860152610e678282610deb565b91505060608301518482036060860152610e818282610deb565b9150508091505092915050565b60006020820190508181036000830152610ea88184610e24565b905092915050565b600082825260208201905092915050565b7f596f7520646f206e6f742068617665207065726d697373696f6e000000000000600082015250565b6000610ef7601a83610eb0565b9150610f0282610ec1565b602082019050919050565b60006020820190508181036000830152610f2681610eea565b9050919050565b7f446f63746f7220646f6573206e6f742068617665206163636573730000000000600082015250565b6000610f63601b83610eb0565b9150610f6e82610f2d565b602082019050919050565b60006020820190508181036000830152610f9281610f56565b9050919050565b7f4e487b7100000000000000000000000000000000000000000000000000000000600052602260045260246000fd5b60006002820490506001821680610fe057607f821691505b602082108103610ff357610ff2610f99565b5b50919050565b60008190508160005260206000209050919050565b60006020601f8301049050919050565b600082821b905092915050565b60006008830261105b7fffffffffffffffffffffffffffffffffffffffffffffffffffffffffffffffff8261101e565b611065868361101e565b95508019841693508086168417925050509392505050565b6000819050919050565b60006110a261109d61109884610a82565b61107d565b610a82565b9050919050565b6000819050919050565b6110bc83611087565b6110d06110c8826110a9565b84845461102b565b825550505050565b600090565b6110e56110d8565b6110f08184846110b3565b505050565b5b81811015611114576111096000826110dd565b6001810190506110f6565b5050565b601f8211156111595761112a81610ff9565b6111338461100e565b81016020851015611142578190505b61115661114e8561100e565b8301826110f5565b50505b505050565b600082821c905092915050565b600061117c6000198460080261115e565b1980831691505092915050565b6000611195838361116b565b9150826002028217905092915050565b6111ae82610da5565b67ffffffffffffffff8111156111c7576111c6610b65565b5b6111d18254610fc8565b6111dc828285611118565b600060209050601f83116001811461120f57600084156111fd578287015190505b6112078582611189565b86555061126f565b601f19841661121d86610ff9565b60005b8281101561124557848901518255600182019150602085019450602081019050611220565b86831015611262578489015161125e601f89168261116b565b8355505b6001600288020188555050505b505050505050565b7f4e487b7100000000000000000000000000000000000000000000000000000000600052603260045260246000fdfea2646970667358221220d909bde36bb1a442225783ea9586f7ca848fb28c3d70277edc22583f659e0e0464736f6c634300081c0033",
  "linkReferences": {},
  "deployedLinkReferences": {}
}